:020000040800F2
:1000000000400020C14D00085D1600085F16000882
:10001000611600086316000865160008000000005D
:10002000000000000000000000000000671600084B
:100030000000000000000000691600086B160008B0
:10004000094E000873160008094E0008094E000802
:10005000094E0008094E0008094E0008094E000824
:10006000094E0008094E0008094E0008094E000814
:10007000094E0008094E0008094E0008094E000804
:10008000094E0008094E0008094E0008094E0008F4
:10009000094E00086F160008094E0008094E0008B6
:1000A000094E0008094E0008094E0008094E0008D4
:1000B000094E0008094E0008094E0008094E0008C4
:1000C000094E0008094E00086D160008094E000888
:0400D000094E0008CD
:1000D8000348044B834202D0034B03B118477047CF
:1000E8000C0000200C000020000000000548064B12
:1000F8001B1AD90F01EBA301491002D0034B03B11E
:10010800184770470C0000200C0000200000000079
:1001180010B5064C237843B9FFF7DAFF044B13B147
:100128000448AFF300800123237010BD10000020A5
:1001380000000000204E000808B5044B1BB104491C
:100148000448AFF30080BDE80840CFE70000000096
:1001580014000020204E000881F0004102E000BF9A
:1001680083F0004330B54FEA41044FEA430594EA6F
:10017800050F08BF90EA020F1FBF54EA000C55EAAA
:10018800020C7FEA645C7FEA655C00F0E2804FEA7B
:100198005454D4EB5555B8BF6D420CDD2C4480EA5D
:1001A800020281EA030382EA000083EA010180EA8D
:1001B800020281EA0303362D88BF30BD11F0004FDB
:1001C8004FEA01314FF4801C4CEA113102D0404211
:1001D80061EB410113F0004F4FEA03334CEA13334C
:1001E80002D0524263EB430394EA050F00F0A78064
:1001F800A4F10104D5F1200E0DDB02FA0EFC22FA5F
:1002080005F2801841F1000103FA0EF2801843FA52
:1002180005F359410EE0A5F120050EF1200E012A43
:1002280003FA0EFC28BF4CF0020C43FA05F3C01881
:1002380051EBE37101F0004507D54FF0000EDCF1FA
:10024800000C7EEB00006EEB0101B1F5801F1BD3A3
:10025800B1F5001F0CD349085FEA30004FEA3C0CA7
:1002680004F101044FEA445212F5800F80F09A809D
:10027800BCF1004F08BF5FEA500C50F1000041EBA1
:10028800045141EA050130BD5FEA4C0C404141EBA5
:100298000101013C28BFB1F5801FE9D291F0000FA0
:1002A80004BF01460020B1FA81F308BF2033A3F14F
:1002B8000B03B3F120020CDA0C3208DD02F1140C46
:1002C800C2F10C0201FA0CF021FA02F10CE002F181
:1002D8001402D8BFC2F1200C01FA02F120FA0CFC7A
:1002E800DCBF41EA0C019040E41AA2BF01EB0451C3
:1002F800294330BD6FEA04041F3C1CDA0C340EDCC1
:1003080004F11404C4F1200220FA04F001FA02F303
:1003180040EA030021FA04F345EA030130BDC4F1C1
:100328000C04C4F1200220FA02F001FA04F340EAB6
:100338000300294630BD21FA04F0294630BD94F067
:10034800000F83F4801306BF81F480110134013D4E
:100358004EE77FEA645C18BF7FEA655C29D094EABF
:10036800050F08BF90EA020F05D054EA000C04BF3D
:100378001946104630BD91EA030F1EBF0021002028
:1003880030BD5FEA545C05D14000494128BF41F0C7
:10039800004130BD14F580043CBF01F5801130BD2B
:1003A80001F0004545F0FE4141F470014FF00000B6
:1003B80030BD7FEA645C1ABF194610467FEA655C67
:1003C8001CBF0B46024650EA013406BF52EA033509
:1003D80091EA030F41F4002130BD00BF90F0000FF7
:1003E80004BF0021704730B54FF4806404F1320433
:1003F8004FF000054FF0000150E700BF90F0000FEC
:1004080004BF0021704730B54FF4806404F1320412
:1004180010F0004548BF40424FF000013EE700BFE2
:1004280042004FEAE2014FEA31014FEA02701FBF72
:1004380012F07F4393F07F4F81F06051704732F0A4
:100448007F4208BF704793F07F4F04BF41F40021FB
:10045800704730B54FF4607401F0004521F0004159
:100468001CE700BF50EA010208BF704730B54FF0E3
:1004780000050AE050EA010208BF704730B511F0E4
:10048800004502D5404261EB41014FF4806404F11C
:1004980032045FEA915C3FF4D8AE4FF003025FEAA2
:1004A800DC0C18BF03325FEADC0C18BF033202EB26
:1004B800DC02C2F1200300FA03FC20FA02F001FA80
:1004C80003FE40EA0E0021FA02F11444BDE600BF23
:1004D80070B54FF0FF0C4CF4E06C1CEA11541DBFD2
:1004E8001CEA135594EA0C0F95EA0C0F00F0DEF89D
:1004F8002C4481EA030621EA4C5123EA4C5350EA82
:10050800013518BF52EA033541F4801143F48013D2
:1005180038D0A0FB02CE4FF00005E1FB02E506F063
:100528000042E0FB03E54FF00006E1FB03569CF0B8
:10053800000F18BF4EF0010EA4F1FF04B6F5007FBE
:1005480064F5407404D25FEA4E0E6D4146EB060630
:1005580042EAC62141EA55514FEAC52040EA5E50B9
:100568004FEACE2EB4F1FD0C88BFBCF5E06F1ED863
:10057800BEF1004F08BF5FEA500E50F1000041EB9A
:10058800045170BD06F0004646EA010140EA020047
:1005980081EA0301B4EB5C04C2BFD4EB0C0541EA69
:1005A800045170BD41F480114FF0000E013C00F37E
:1005B800AB8014F1360FDEBF002001F0004170BDA2
:1005C800C4F10004203C35DA0C341BDC04F11404BB
:1005D800C4F1200500FA05F320FA04F001FA05F247
:1005E80040EA020001F0004221F0004110EBD37014
:1005F80021FA04F642EB06015EEA430E08BF20EA40
:10060800D37070BDC4F10C04C4F1200500FA04F3E2
:1006180020FA05F001FA04F240EA020001F0004174
:1006280010EBD37041F100015EEA430E08BF20EAE7
:10063800D37070BDC4F1200500FA05F24EEA020E2F
:1006480020FA04F301FA05F243EA020321FA04F05E
:1006580001F0004121FA04F220EA020000EBD37015
:100668005EEA430E08BF20EAD37070BD94F0000F15
:100678000FD101F00046400041EB010111F4801F49
:1006880008BF013CF7D041EA060195F0000F18BFFA
:10069800704703F00046520043EB030313F4801F36
:1006A80008BF013DF7D043EA0603704794EA0C0FF0
:1006B8000CEA135518BF95EA0C0F0CD050EA410606
:1006C80018BF52EA4306D1D181EA030101F0004183
:1006D8004FF0000070BD50EA410606BF10461946AB
:1006E80052EA430619D094EA0C0F02D150EA0136B7
:1006F80013D195EA0C0F05D152EA03361CBF1046F8
:1007080019460AD181EA030101F0004141F0FE4196
:1007180041F470014FF0000070BD41F0FE4141F41A
:10072800780170BD70B54FF0FF0C4CF4E06C1CEA1A
:1007380011541DBF1CEA135594EA0C0F95EA0C0FCF
:1007480000F0A7F8A4EB050481EA030E52EA03358A
:100758004FEA013100F088804FEA03334FF08055AB
:1007680045EA131343EA12634FEA022245EA1115D8
:1007780045EA10654FEA00260EF000419D4208BF89
:10078800964244F1FD0404F5407402D25B084FEA36
:100798003202B61A65EB03055B084FEA32024FF4E2
:1007A80080104FF4002CB6EB020E75EB030E22BF3F
:1007B800B61A754640EA0C005B084FEA3202B6EBFF
:1007C800020E75EB030E22BFB61A754640EA5C00AE
:1007D8005B084FEA3202B6EB020E75EB030E22BF3E
:1007E800B61A754640EA9C005B084FEA3202B6EB3F
:1007F800020E75EB030E22BFB61A754640EADC00FE
:1008080055EA060E18D04FEA051545EA16754FEA5F
:1008180006164FEAC30343EA52734FEAC2025FEA7D
:100828001C1CC0D111F4801F0BD141EA00014FF00C
:1008380000004FF0004CB6E711F4801F04BF0143DD
:100848000020B4F1FD0C88BFBCF5E06F3FF6AFAEF9
:10085800B5EB030C04BFB6EB020C5FEA500C50F189
:10086800000041EB045170BD0EF0004E4EEA11310C
:1008780014EB5C04C2BFD4EB0C0541EA045170BD13
:1008880041F480114FF0000E013C90E645EA060E57
:100898008DE60CEA135594EA0C0F08BF95EA0C0F85
:1008A8003FF43BAF94EA0C0F0AD150EA01347FF4CD
:1008B80034AF95EA0C0F7FF425AF104619462CE7A4
:1008C80095EA0C0F06D152EA03353FF4FDAE104607
:1008D800194622E750EA410618BF52EA43067FF458
:1008E800C5AE50EA41047FF40DAF52EA43057FF4E8
:1008F800EBAE12E74FF0FF3C06E000BF4FF0010CF3
:1009080002E000BF4FF0010C4DF804CD4FEA410C56
:100918007FEA6C5C4FEA430C18BF7FEA6C5C1BD023
:1009280001B050EA410C0CBF52EA430C91EA030FA4
:1009380002BF90EA020F0020704710F1000F91EA01
:10094800030F58BF994208BF90422CBFD8176FEACF
:10095800E37040F0010070474FEA410C7FEA6C5C9D
:1009680002D150EA013C07D14FEA430C7FEA6C5CA4
:10097800D6D152EA033CD3D05DF8040B704700BFD0
:100988008446104662468C461946634600E000BF1E
:1009980001B5FFF7B7FF002848BF10F1000F01BDF0
:1009A8004DF808EDFFF7F4FF0CBF012000205DF8BB
:1009B80008FB00BF4DF808EDFFF7EAFF34BF012040
:1009C80000205DF808FB00BF4DF808EDFFF7E0FFD9
:1009D80094BF012000205DF808FB00BF4DF808ED2A
:1009E800FFF7CEFF94BF012000205DF808FB00BF91
:1009F8004DF808EDFFF7C4FF34BF012000205DF873
:100A080008FB00BF4FEA410212F5001215D211D5BA
:100A18006FF47873B3EB625212D94FEAC12343F0F3
:100A2800004343EA505311F0004F23FA02F018BF75
:100A3800404270474FF00000704750EA013005D13E
:100A480011F0004008BF6FF0004070474FF0000001
:100A5800704700BF4A0011D212F5001211D20DD50D
:100A68006FF47873B3EB62520ED44FEAC12343F0AC
:100A7800004343EA505323FA02F070474FF0000056
:100A8800704750EA013002D14FF0FF3070474FF005
:100A98000000704753B94AB9002908BF00281CBF95
:100AA8004FF0FF314FF0FF3000F088B9ADF1080C7E
:100AB8006DE904CE00F024F8DDF804E0DDE9022356
:100AC80004B07047D0B50C4B002206460F46FFF71E
:100AD800FFFCFFF7BFFF0446FFF780FC074B00222F
:100AE800FFF7F6FC02460B4630463946FFF738FB5F
:100AF800FFF7B0FF2146D0BD0000F03D0000F041F7
:100B08002DE9F047089D0E4604460F46002B4AD1B2
:100B180094468C45B2FA82F260D942B1C2F1200300
:100B2800974020FA03F30CFA02FC1F4394404FEA63
:100B38001C4E1FFA8CF6B7FBFEF1230C0EFB117747
:100B480043EA074301FB06F098420AD91CEB03036A
:100B580001F1FF3780F01581984240F21281023985
:100B680063441B1AA4B2B3FBFEF00EFB103344EA35
:100B7800034400FB06F6A6420AD91CEB040400F164
:100B8800FF3380F00081A64240F2FD8064440238C1
:100B980040EA0140A41B00211DB1D4400023C5E94F
:100BA8000043BDE8F0878B4205D90DB1C5E90001C6
:100BB80000210846F5E7B3FA83F1002946D1B3428C
:100BC80002D3824200F2F580841A66EB0302012008
:100BD8001746002DE5D0C5E90047E2E7002A40F0B6
:100BE8009380A1EB0C034FEA1C471FFA8CFE0121EE
:100BF800B3FBF7F607FB1630230C43EA00430EFB62
:100C080006F0984208D91CEB030306F1FF3802D21C
:100C1800984200F2D08046461B1AA4B2B3FBF7F004
:100C280007FB103344EA03440EFB00FEA64508D92F
:100C38001CEB040400F1FF3302D2A64500F2B68093
:100C48001846A4EB0E0440EA0640A5E7C1F12007C8
:100C58008B4022FA07FC4CEA030C06FA01FE20FA44
:100C680007F426FA07F344EA0E0400FA01F84FEAFB
:100C78001C404FEA1449B3FBF0FE1FFA8CF600FB48
:100C88001E3349EA03430EFB06F9994502FA01F2BD
:100C98000BD91CEB03030EF1FF3A80F085809945D0
:100CA80040F28280AEF1020E6344A3EB0909A4B2BC
:100CB800B9FBF0F300FB139944EA094403FB06F679
:100CC800A64208D91CEB040403F1FF3068D2A642FF
:100CD80066D9023B644443EA0E40A41BA0FB02E62B
:100CE800B4427346B14652D34FD05DB1B8EB03025C
:100CF80064EB090404FA07F722FA01F31F43CC4016
:100D0800C5E9007400214CE7C2F1200120FA01F383
:100D18000CFA02FC26FA01F1964033434FEA1C47CD
:100D28001FFA8CFEB1FBF7F007FB1016190C41EA0D
:100D3800064100FB0EF68E4204FA02F408D91CEBB9
:100D4800010100F1FF382DD28E422BD902386144BF
:100D5800891B9BB2B1FBF7F607FB161143EA014367
:100D680006FB0EF1994208D91CEB030306F1FF3884
:100D780014D2994212D9023E63445B1A46EA0041F2
:100D880036E73946EDE6184602E7F045ADD2BEEB48
:100D9800020366EB0C060138B146A6E74646ECE7C7
:100DA800034698E74046D3E7D6467EE764440238D0
:100DB80047E708460DE7023E63442DE7704700BF4A
:100DC800830730B547D0541E002A3ED0CAB2034626
:100DD80001E0013C39D303F8012B9D07F9D1032C1D
:100DE8002CD9CDB205EB05250F2C05EB054535D9DA
:100DF800A4F1100222F00F0C03F1100EE6444FEAA2
:100E0800121C1A46C2E90055C2E902551032724551
:100E1800F8D10CF1010214F00C0F03EB021204F0EC
:100E28000F0C13D0ACF1040323F003030433134471
:100E380042F8045B9342FBD10CF003042CB1C9B215
:100E48001C4403F8011BA342FBD130BD6446134682
:100E5800002CF4D1F9E703461446C0E71A46A44625
:100E6800E0E700BF844641EA000313F003036DD1B5
:100E7800403A41D351F8043B40F8043B51F8043B55
:100E880040F8043B51F8043B40F8043B51F8043B5C
:100E980040F8043B51F8043B40F8043B51F8043B4C
:100EA80040F8043B51F8043B40F8043B51F8043B3C
:100EB80040F8043B51F8043B40F8043B51F8043B2C
:100EC80040F8043B51F8043B40F8043B51F8043B1C
:100ED80040F8043B51F8043B40F8043B51F8043B0C
:100EE80040F8043B51F8043B40F8043B51F8043BFC
:100EF80040F8043B403ABDD2303211D351F8043B9C
:100F080040F8043B51F8043B40F8043B51F8043BDB
:100F180040F8043B51F8043B40F8043B103AEDD24A
:100F28000C3205D351F8043B40F8043B043AF9D29B
:100F3800043208D0D2071CBF11F8013B00F8013B6E
:100F480001D30B8803806046704700BF082A13D37B
:100F58008B078DD010F003038AD0C3F10403D21A93
:100F6800DB071CBF11F8013B00F8013B80D331F8C7
:100F7800023B20F8023B7BE7043AD9D3013A11F847
:100F8800013B00F8013BF9D20B7803704B784370B2
:100F98008B7883706046704770B50F4B0F4DAB422E
:100FA800A3EB050607D0B610002455F8043B01341E
:100FB8009847A642F9D803F02FFF094D094B5E1B4D
:100FC800AB424FEAA60606D0002455F8043B01348C
:100FD8009847A642F9D870BDDC500008DC500008DC
:100FE800DC500008E4500008002301461A46184661
:100FF80000F014B838B5074D074C2C1BA41005D0C9
:10100800013C55F8043D9847002CF9D1BDE838401B
:1010180003F008BFE8500008E450000870B4164D0B
:101028002C681CB365681F2D23DC38B9AB1C01354F
:10103800656044F82310002070BC704704EB850CF1
:101048000228CCF88820D4F888614FF0010202FA0F
:1010580005F246EA0206C4F88861CCF80831E5D101
:10106800D4F88C311343C4F88C31DFE7034C2C607F
:10107800D8E74FF0FF30DFE780020020840200202D
:10108800C1F30A5C2DE9F041ACF2FF35132D02469D
:101098000B460C46064634DC002D20DBDFF8D080FA
:1010A80048FA05F801EA080C5CEA000C0F462DD056
:1010B8002DA3D3E90023FFF755F800220023FFF7FB
:1010C80097FC40B1002C03DD4FF480132B411F44E3
:1010D80027EA0804002621463046BDE8F08122A30D
:1010E800D3E90023FFF73EF800220023FFF780FC36
:1010F8000028F0D0002C33DB344300D01D4C0026F0
:10110800E9E7332D06DDB5F5806F26D01046194680
:10111800BDE8F081ACF2134C4FF0FF3727FA0CF71B
:101128003842F3D010A3D3E90023FFF71BF80022BD
:101138000023FFF75DFC0028CDD0002C334609DDE5
:10114800142D06D0C5F134050122AA4013449E424D
:1011580000D9013423EA0706BDE7FFF703F8D7E70C
:1011680000264FF00044B6E79C7500883CE4377EC3
:10117800FFFF0F000000F03F38B5C1F30A54A4F296
:10118800FF3CBCF1130F02460B468E461BDCBCF13C
:10119800000F11DB1E4941FA0CF101EA030010436C
:1011A80017D04FF4002343FA0CF3734423EA010EDB
:1011B80000237146184638BDBCF1FF3F01F0004ED0
:1011C80020D00023F5E7BCF1330F05DDBCF5806FB7
:1011D80015D01046194638BDA4F213444FF0FF311C
:1011E800E1400142F5D0CCF1330C012303FA0CF3B2
:1011F8001B1828BF0EF1010E23EA0103D9E7FEF7F9
:10120800B1FF38BD4EF07F5E4EF4401E0023D0E79C
:10121800FFFF0F0000000000C1F30A5C2DE9F04158
:10122800ACF2FF35132D02460B460C46064632DC5F
:10123800002D20DBDFF8E08048FA05F801EA080C09
:101248005CEA000C0F462BD031A3D3E90023FEF74C
:1012580089FF00220023FFF7CBFB40B1002C03DA03
:101268004FF480132B411F4427EA08040026214627
:101278003046BDE8F08126A3D3E90023FEF772FFCC
:1012880000220023FFF7B4FB0028F0D0002C27DB56
:1012980000263446EBE7332D06DDB5F5806F1CD00C
:1012A80010461946BDE8F081ACF2134C4FF0FF37F9
:1012B80027FA0CF70742F3D015A3D3E90023FEF76A
:1012C80051FF00220023FFF793FB0028CFD0002C0A
:1012D80033460CDB23EA0706C9E7FEF743FFE1E7DD
:1012E80024F0004426430DD14FF00044BFE7142DED
:1012F80006D0C5F134050122AA401344B342E9D20D
:101308000134E7E7054C0026B1E700BFAFF30080E2
:101318009C7500883CE4377EFFFF0F000000F0BF9B
:10132800F0B5C1F30A55A5F2FF3EBEF1130F83B025
:1013380002460B460C4684464FEAD1765DDCBEF188
:10134800000F31DB3D4941FA0EF101EA0300104379
:1013580059D003EA510352EA030C4FEA51010ED067
:10136800AEF1130C24EA0101BCFA8CFC4FF4802482
:101378004FEA5C1C44FA0EF44FEACC7C0C4330492B
:1013880001EBC6012346D1E90045624620462946BD
:10139800FEF7E8FECDE90001DDE9000122462B4613
:1013A800FEF7DEFE03B0F0BD21F00041014319460F
:1013B800F8D0C3F313020243214D534205EBC6058F
:1013C8001343D5E90067620C1B0B03F40023520496
:1013D80043EA02010B46024639463046FEF7C2FE92
:1013E800CDE90001DDE9000132463B46FEF7B8FED3
:1013F80061F31E04214603B0F0BDBEF1330F06DDD4
:10140800BEF5806F17D01046194603B0F0BDA5F29F
:1014180013454FF0FF31E9400842F4D04B0810EA79
:101428005101ACD04FF0804C20EA03034CFA05FC84
:1014380043EA0C0CA3E7FEF795FEB3E7FFFF0F00A6
:101448003850000808B50121022001F0D1FC012123
:101458001F2001F073FA01210D2001F06FFA01211C
:10146800202001F06BFA0121212001F067FA012107
:10147800222001F063FA0121412001F05FFA0121E5
:10148800032001F05BFA0121002001F057FA012145
:101498000E2001F053FA642001F020F9012001F038
:1014A800D5F900F0E5F8BDE8084003F0B1B908B592
:1014B800FFF7C8FF00F032F8002008BD014BDB6AD7
:1014C800184700BFB44F0008FFF7F8BFFFF7F6BF93
:1014D80010B5044801F07AF8034BBDE81040DB6A08
:1014E800184700BF48500008B44F0008084B70B5B3
:1014F800DB6A0C46064615469847064B1C80064B89
:10150800224631461846FFF7ADFC457170BD00BF55
:10151800B44F0008000000202C0000202DE9F047FF
:101528003E4D3F483F4E8CB001F050F805F10800A1
:1015380001F024FE3C4B2B613C4BAB613C4B6B6197
:101548003C4BEB613C4B2B6205F11000336898472C
:10155800F3683A480024984740F6B833CDE9074382
:10156800F3694FF001084FF007094FF0080A1F46CA
:1015780022462346CDE90544CDE90348CDF800903D
:101588000E214046CDE9018AB847B3694A461F464D
:101598002146CDE90848CDE90644CDE90448CDE91E
:1015A8000244CDE9004A43464046B84700F060F897
:1015B800234CDFF89C90234F1021204601F019FEA0
:1015C800012823D11021204601F019FE4021204690
:1015D80001F015FE484600F0F9FF00F085F8B36AFF
:1015E8000B933B787BB100230A203B7001F076F81F
:1015F800A98D154A154800F0E9FFA98D12480B9BE3
:101608000139C9B29847336E9847D5E7402120463B
:1016180001F0EFFD0128E2D1D4E700BF2C00002043
:1016280056500008B44F0008C5140008F514000807
:10163800D1140008D9140008D514000880A1031C8F
:101648000030004092000020600000208750000811
:101658006D5000087047FEE7FEE7FEE7FEE77047BB
:1016680070477047704702F0F3BC03F0E3B900001D
:101678001FB51C4C01211F2001F060F90121202019
:1016880001F05CF920460122002101F0BDF8012299
:101698001146204601F0B8F801A801F096FD4FF474
:1016A800E13301936023A4F5E234ADF80830002358
:1016B8008DF80A3001A94FF098732046039301F082
:1016C800A1FD2046012101F08BFD204601221021B9
:1016D80001F073FD01224021204601F06EFD04B0A7
:1016E80010BD00BF00F4014070B5184E184C102111
:1016F800304601F051FD012800D170BD304601F09F
:1017080056FD01460546134800F060FF23889BB24A
:10171800302B17D823889BB25A1C234492B20A2D27
:1017280022809D7002D00C4B9D42E0D10B4800F006
:101738004DFF0B4B22881A8000232380012384F855
:101748003430D4E700232380F9E700BF003000409D
:101758005E000020A6500008A9500008AB50000801
:101768005800002070472DE9F84F98460D9B154604
:101778009A07DDE90B4906460F4623D02A460A9BFD
:1017880003EB040A1444A24220D10D9B9B0705D504
:10179800A2EB050AD14505EB0A0420D82046BDE88E
:1017A800F88F434639462020B0470AF1010ACA4556
:1017B8000AEB0B02F5D3A9EB04024C4588BF0022C3
:1017C8002A44DCE7A246A5EB040BF0E702F1010B83
:1017D8001AF8010D43463946B0475A46D3E74346FF
:1017E800224639462020B0470AF1010AD2E72DE9FE
:1017F800F047DDE90D7616F0020FDDE90854DDE962
:101808000BCE9DF828801FD106F001094FB1B9F120
:10181800000F06D0B8F1000F02D116F00C0F00D05F
:10182800013F4FF0300A04E0202C04D005F804A052
:1018380001347445F8D3B9F1000F05D04FF03009E1
:10184800A74201D9202C2DD116F0100F1FD016F465
:10185800806F2CD15CB3744501D0BC4227D1B4F160
:10186800010E23D0BCF1100F46D1023C16F0200F18
:1018780028D1202C28D04FF0780C05F804C001346A
:10188800202C21D04FF0300C05F804C00134202C56
:101898001AD0B8F1000F23D04FF02D0C05F804C072
:1018A800013412E005F804900134C9E77446BCF12C
:1018B800100FDBD0BCF1020FE2D1202C04D04FF086
:1018C800620CDAE7202C08D12024CDE90A76CDE98C
:1018D8000854BDE8F047FFF746BF4FF0580CCCE777
:1018E80016F0040F02D04FF02B0CD7E716F0080FB4
:1018F800EBD04FF0200CD1E7BCF1020F7446C1D1F8
:10190800DDE72DE9F04391B0189D1A9E1D9F0DB992
:1019180027F010077C0500D515B317F0200F14BF6A
:101928004FF0410E4FF0610EAC460DF12008002536
:10193800AEF10A0EBCFBF6F906FB19C95FFA89F489
:10194800B9F1090F94BF30347444E4B2B44508F8CF
:10195800014BBCFBF6F405F1010501D3202D10D194
:101968001C9C05941B9C0697CDE903649DF8644074
:10197800CDE9015408AC0094FFF739FF11B0BDE878
:10198800F083A446D6E72DE9F04F95B0DDE91E7443
:10199800269ECDE90A2357EA040308BF26F010065D
:1019A8007205CDE90801DDE9229B02D557EA040357
:1019B80037D016F0200F14BF412361230DF1300AF0
:1019C8000025A3F10A0821464A465B463846FFF738
:1019D80061F8D2B2092A94BF303242444F45D2B29C
:1019E80074EB0B040AF8012B05F1010501D3202D36
:1019F80014D1259B0593249B0696CDE903939DF866
:101A08008030CDE901530CAB0093DDE90801DDE935
:101A18000A23FFF7ECFE15B0BDE8F08F07460C4629
:101A2800D1E70025E5E700002DE9F04F2DED028B09
:101A380093B09DED1E7B1F46DDE920530B920E935C
:101A480053EC172BCDE90901104619468DED067B9D
:101A5800229EFEF7A5FF80B1DDE90601C44B4FF0D9
:101A6800FF32FEF7C5FF40B9DDE906014FF0FF324E
:101A78006FF48013FEF79EFF90B10E9B0998229693
:101A88009DED067BDDE90A12CDE920533B468DED3D
:101A98001E7B13B0BDEC028BBDE8F04F00F080B99F
:101AA800DDE9060100220023FEF784FF002800F08C
:101AB8003681DDE906A303F1004B16F480630F932A
:101AC800CBF30A53A3F2FF3307EE903ACBF313029A
:101AD800F8EEE77A9FEDA77A9FEDA78AA74B42F029
:101AE8007F5150464FF0000241F4401108BF0625CF
:101AF800A7EE878AFEF734FB97A3D3E90023FEF706
:101B0800E7FC804618EE100A8946FEF789FC024673
:101B18000B4640464946FEF725FBFEF773FF07EEE6
:101B2800900AB8EEE77ADFED967AB6EE008AA7EE6D
:101B3800278A0446DFED937ABDEEC88AF8EEC86AB4
:101B480067EEE67ADFED906AE7EE267A17EE900AFE
:101B5800FEF766FC02460B46CDE90C23FEF7B8FCFF
:101B6800DDE90C238046894610461946FEF7FAFA45
:101B7800864BCDE91001002240464946FEF7D2FDCA
:101B8800834B0022FEF7EEFA02460B4640464946D2
:101B9800FEF7C8FD7F4B0022FEF7E4FA02460B462B
:101BA80040464946FEF7BEFDDDE90C2380468946DE
:101BB80000204FF08041FEF7D3FA02460B4640461C
:101BC8004946FEF7CFFA02460B46DDE91001FEF75B
:101BD800A9FD714B0022FEF7C5FA18EE103A03F280
:101BE800FF3C00224FEA0C53FEF772FC52465B465C
:101BF80080468946FEF7FCFE002840F09380CDE938
:101C08000C8904F16303C62B8CBF4FF005084FF015
:101C1800040831051ED552A3D3E90023504659467E
:101C2800FEF7DCFE002800F087804FA3D3E90023ED
:101C380050465946FEF7BEFE00287DD0A542C8BFD3
:101C48002C1B4FF00008CCBF04F1FF35002546F4EB
:101C5800806644460E9B984534BFA3EB08094FF0B5
:101C6800000916F002030F9304D0B8F1000F18BF53
:101C78004FF000093CB150465946DDE90C23FEF708
:101C880051FD82468B46DDE9060100220023FEF75E
:101C980091FE10B10BF100439B4626F40063CDE999
:101CA8000393DDE90A12CDE900AB099802953B469A
:101CB80000F076F80246B8F1000F2AD016F0200F8F
:101CC80000F101050A99099E0CBF652045203B4695
:101CD800B0470523059308F1FF33049300220A2334
:101CE800002CCDE902324FEAD473B8BF64420193A5
:101CF8002A463B46DDE909010094FFF702FE0F9BE7
:101D0800024633B10B9BC41A0B9B1A190E9BA342B4
:101D180019D8104613B0BDEC028BBDE8F08FDDE991
:101D280006ABCAE61A4B002240464946FEF7FAFCC3
:101D3800013CCDE90C0164E7002D8BD00F9B002BF3
:101D480088D0013D86E70A99099D3B462020A8478F
:101D58000134D9E7AFF3008000000060A787D23FC5
:101D6800000000E0E2361A3F0000000080842E41A7
:101D7800FFFFEF7F9B209A3E4451343E0000F83F1E
:101D8800789A54401872313F8E5D134000002C4001
:101D980000002440000018400000F03F0000000050
:101DA8002DE9F04F97B0DDE920ABCDE90501CDE98C
:101DB8000723504652465B465946DDE92258249F80
:101DC800FEF7EEFD70B90323CDE922872193AE4BD0
:101DD8002093DDE90501DDE9072317B0BDE8F04FE1
:101DE800FFF7C1BC4FF0FF326FF4801350465946DD
:101DF800FEF7E0FD28B104232193CDE92287A34B08
:101E0800E6E7A34B4FF0FF3250465946FEF7F0FD88
:101E180068B1A04A07F00403002B08BF03229E4BB9
:101E28001CBF13460422CDE922872192D0E792A352
:101E3800D3E9002350465946FEF7DAFD38B990A396
:101E4800D3E9002350465946FEF7B4FD68B1DDE9F1
:101E58000723DDE90501CDE92387CDE920AB2295EC
:101E680017B0BDE8F04FFFF7DFBD00220023504652
:101E78005946FEF79FFD002800F091805B465246C8
:101E880000200021FEF76CF9012382468B46099356
:101E980017F4806400F08580092D40F285800EAB30
:101EA800A5F10902002430210134202C03F8011B7C
:101EB800A5EB040901D09442F6D159465046FEF7E5
:101EC800A1FD764B03EBC90393ED007B05468DED31
:101ED8000A7BFEF793FA02460B4650465946FEF730
:101EE8003FF9DDE90A23FEF7F3FA02460B46CDE98E
:101EF8000C23FEF7AFFD0646FEF770FA02460B46C6
:101F0800DDE90C01FEF72CF902460B46CDE90C235E
:101F1800634B0022FEF76CFD002848D0013630469E
:101F2800FEF75CFA02460B46DDE90A01FEF74CFDB6
:101F380008B101350026B9F1000F45D12846FEF752
:101F48005DFA02460B4650465946FEF709F9544BCE
:101F58000022FEF72FFD10B9E90700D501350EABB9
:101F68001A190A21202C0AD095FBF1F001FB105513
:101F7800303502F8015B013405460028F2D107F03C
:101F88000302012A5DD1B8F1000F5AD0099A12B99B
:101F980017F00C0F01D008F1FF3830223FE009900C
:101FA80076E74FF0060988E7A946002485E7DDE9CA
:101FB8000C013B4B0022FEF7FDFC0028BBD10EB103
:101FC800F007B8D50136B6E70EAB1A190A21202C4E
:101FD8000CD0B6FBF1F001FB10633033092E02F888
:101FE800013B09F1FF3904F1010411D8A1440EAAFB
:101FF8003021202CB3D04C4504F101030AD104F15F
:1020080058020DEB02042E2204F8202C1C46A6E7E9
:102018000646DCE7A1541C46EBE71A550134444553
:102028000FD2202CF9D10EAB0093CDE90287DDE960
:102038000723DDE905010194FFF795FB17B0BDE81B
:10204800F08F202CEFD0099B3BB104F158036B446F
:102058002D2203F8202C0134E5E77A0704D504F192
:1020680058036B442B22F4E73B07DCD504F15803F3
:102078006B442022EDE700BF0000000065CDCD4194
:102088000000000065CDCDC1C1500008C550000852
:10209800FFFFEF7FB8500008BD500008384E000819
:1020A8000000E03F014610B1014801F07BB87047DD
:1020B800003000402DE9F04F91B098460B1E0A936E
:1020C800B34B1A9E914614BF83469B46002598F849
:1020D800000060B94D450A992CBF09F1FF322A4624
:1020E8004B460020D847284611B0BDE8F08F252878
:1020F80008F1010806D02A460A996C1C4B46D847B5
:102108002546E4E70023414611F8012B2B2A16D077
:102118000AD8202A16D0232A17D0A2F1300009287D
:1021280034D800270A2418E02D2A05D0302AF4D103
:1021380043F001038846E6E743F00203FAE743F079
:102148000403F7E743F00803F4E743F01003F1E76B
:1021580004FB0722A2F130078846414611F8012BFB
:10216800A2F130000928F3D998F800202E2A52D17C
:1021780098F80110A1F13000092808F1010243F490
:1021880080633ED800244FF00A0E11E02A2A08D1B5
:1021980056F8047B002FBCBF43F002037F428846F9
:1021A800E2E70027E0E70EFB0411A1F13004024644
:1021B800104610F8011BA1F1300CBCF1090FF2D93F
:1021C8009046424612F8011B6C292DD025D8682963
:1021D80033D06A293BD04246904618F8010B67284D
:1021E80060D8572836D8452808D084D9462800F022
:1021F800188147287FF47FAF43F4006343F020033E
:1022080029E12A2906D156F8044B08F1020824EAE4
:10221800E474D6E790460024D3E7742901D07A29DC
:10222800D9D143F48073D7E798F801106C29F8D115
:1022380043F4407308F10202CEE798F801106829C8
:1022480002D043F08003C7E743F0C003F2E743F44A
:102258000073C1E7A0F158020F2A3FF64CAF01A165
:1022680051F822F00D230008FF200008FF20000885
:10227800FF200008FF200008FF200008FF200008BA
:10228800FF200008FF200008FF2000080D23000899
:10229800812400080D230008532400082F24000877
:1022A80053240008A0F16901C9B20F293FF623AFF2
:1022B80001228A4049F2410C12EA0C0218D10A297B
:1022C80000F0198107297FF416AF43F02103059325
:1022D8000823CDE903431023CDE9012356F8043B35
:1022E80000930A994B462A465846FFF70AFBAAE08C
:1022F8006F2800F0648110D9782808D1102223F0C3
:102308000C0310E0582839D0622800F05A8123F0D5
:1023180010030A22642806D0F1E7692823F0100385
:102328004FF00A02F6D1590548BF23F00103692886
:1023380003F4007101D0642840D111B3073626F0A8
:102348000706B24670685AF8081B0694CDE9077369
:1023580000230593C30F0028029304920B4602DA68
:102368004B4260EB4000CDE900300A994B462A46C3
:102378005846FFF708FB05465646A8E643F02003F3
:10238800BCE7D90506F1040A04D5316805E000BFA9
:102398006D17000858060CD53178CDE90224CDE92F
:1023A800047300294FEAD1730193B8BF49420091E1
:1023B80020E01906E9D5B6F90010EEE779B1CDE9C4
:1023C80007730023CDE9042306F1070A2AF0070A58
:1023D80006940293FAE80223CDE90023C5E7D8055D
:1023E80006F1040A0DD5CDE90473CDE90224019163
:1023F800336800930A994B462A465846FFF781FAF4
:10240800B9E7590607D53178CDE904730023CDE93A
:1024180002240193CBE7316813F0800F18BF89B20B
:10242800F2E743F02003CDE90373073626F00706E9
:102438000294F6E802230A99CDE9002358464B4650
:102448002A46FFF7ADFC054641E600F0DF004728C5
:1024580001D143F40063CDE90373073626F007067C
:102468000294F6E802230A99CDE9002358464B4620
:102478002A46FFF7D9FAE6E713F0020426D04FF010
:10248800010A6B1C0B930A9916F8040B4B462A4653
:10249800D84774B30B9A544621E00A994B4620203A
:1024A800D8470AEB05020AF1010A5745F5D83A1E42
:1024B80018BF0122002A07F1FF3308BF002307F1E4
:1024C800010A1D4408BF4FF0020ADAE7A246E8E70E
:1024D800551C0A994B462020D84701342A46BC424D
:1024E800F6D30B9AA7EB0A03574538BF00231A44C3
:1024F8000B920B9DEBE5324652F804AB0B92324A35
:10250800BAF1000F08BF9246002C14BF21464FF0C5
:10251800FF3151445246107808B1914210D1A2EBD4
:102528000A0613F480620C9202D0A64228BF2646FF
:1025380013F002030D9317D1731B2A460F9308E07B
:102548000132E8E7531C0E930A994B462020D847DE
:102558000E9A0F9BD318BB42F4D3BB1BB74238BFAC
:102568000023721C1D449E18A5EB0A030E9304E079
:102578001C460A994B462A46D8470E9B0AEB030588
:102588001AF8010B28B10C9B002BF2D0631E002C0B
:10259800EED10D9B8BB12A46741B06E002F1010AAD
:1025A8000A994B462020D84752461319BB42F5D307
:1025B800BB1BB74238BF00231D440B9E87E508228A
:1025C8009DE602229BE600BFCA5000080FB41FB563
:1025D80006AA02A952F8043B0392009204484FF05D
:1025E800FF32FFF767FD05B05DF804EB04B07047F4
:1025F800AD200008064B0748E02283F82220C021BE
:102608000023C2180133252B82F80013F9D1704733
:1026180000ED00E000E100E00F4A08B5D2F888308C
:1026280043F47003C2F888304FF08042D36843F017
:102638008003D36002F50032536923F4702343F416
:102648008033536193689B07FCD5FFF7D3FFBDE840
:10265800084000F003B800BF00ED00E008B5012015
:1026680000F000F90C4B984214D90C4A0133B0FB26
:10267800F3F313700A4A4FF47A73B0FBF3F04FF098
:10268800E0230138E021586182F8231000229A6182
:1026980007221A6108BD00BF3F420F0094000020C6
:1026A80000ED00E070B50C4B4FF0E0241B78666934
:1026B80073B1A16958430023A2699142FCD095BF28
:1026C800B51A5B1849199B1A98BF5B18834200D347
:1026D80070BD1146F0E700BF940000204FF47A73F4
:1026E8005843FFF7DFBF0000012310B58B40062ACF
:1026F80000F28180DFE802F0040F1B2938496300EB
:1027080002681A43026082681A438260C26822EA39
:102718000303C36018E002681A43026082681A4320
:102728008260C2681A43C260026913430BE0026800
:102738001A43026082681A438260C2681A43C26000
:10274800026922EA0303036110BD026822EA030258
:102758000260826822EA03028260426822EA030277
:102768004260826913430EE0026822EA03020260B3
:10277800826822EA03028260426822EA0302426017
:10278800826922EA03038361DEE71E4CA0426FEAF6
:1027980003020BD1072909D9816911408161816838
:1027A8000A40826002681A430260BDE7016811406E
:1027B800016081680A40826042681A43D0E7114C80
:1027C800A0426FEA03020AD1072908D9816911409A
:1027D800816181681140816001680A40E4E701680D
:1027E8001140016081681140816041680B4343607A
:1027F80083691340C7E702681A430260826822EAC5
:10280800030282E700FC0140072910B511D90E4BDD
:10281800083998420BBF01EB4101890007230F23B8
:102828008B4002FA01F1C26B22EA03030B43C36334
:1028380010BD836B89000F248C4023EA04038A406F
:102848001A438263F4E700BF00FC0140044AD368DE
:1028580018B143F08003D360704723F08003FAE790
:10286800008000404FF0804301461A6802F4E042BD
:10287800B2F5A04F20D015D8B2F5805F1ED0B2F5C2
:10288800005F1B4808BF4FF4004002291BD00329F2
:1028980023D0012905D14FF080431B68C3F30323DC
:1028A800D8407047B2F5C04F0BD0114B1148B2F564
:1028B800E04F18BF1846E8E70F48E6E74FF4FA403C
:1028C800E3E70E48E1E74FF080421368C3F30323C0
:1028D800D8401368C3F34213E2E74FF0804213680D
:1028E800C3F30323D8401368C3F3C233D8E700BF48
:1028F80000366E01006CDC020048E80180EE36000C
:102908004FF08043986800F4C03070474FF0804320
:10291800986800F4C04070474FF08043986800F40E
:10292800C05070474FF08043986800F4C06070470B
:102938004FF08043586800F00200704741284AD899
:10294800DFE810F011020702FD01E401D201B9012C
:10295800710167015D01530149013F0135010D0115
:102968000301D600EA00E000CC004900C200B8002C
:10297800AE00A30099008F0085006B00610057002E
:102988004D004200170121012B014900490049006F
:1029980049004900490049004900490049004900E7
:1029A800490049002E0225021B0238029501490000
:1029B80049004900490049004900490049004900C7
:1029C8004900490042024C024FF08043DA6819B1CD
:1029D80042F48012DA60704722F48012FAE74FF06E
:1029E8008043DA6811B142F40022F3E722F40022AE
:1029F800F0E74FF08043DA6811B142F48022E9E74A
:102A080022F48022E6E74FF08043DA6811B142F4FD
:102A18000032DFE722F40032DCE74FF08043DA6867
:102A280079B142F48032DA604FF080439A6A02F05A
:102A38003F023F2AFAD15A6931B142F004025A6181
:102A4800704722F48032EEE722F00402F7E74FF0F5
:102A58008043DA6811B142F40042BBE722F4004235
:102A6800B8E74FF08043DA6811B142F48042B1E729
:102A780022F48042AEE74FF08043DA6811B142F4A5
:102A88000052A7E722F40052A4E74FF080431A69E6
:102A980019B142F020021A61704722F02002FAE7C9
:102AA8004FF08043DA6811B142F4805292E722F481
:102AB80080528FE74FF08043DA6811B142F4006228
:102AC80088E722F4006285E74FF08043DA6811B1A5
:102AD80042F480627EE722F480627BE74FF0804315
:102AE800DA6811B142F4807274E722F4807271E7F7
:102AF8004FF08043DA6811B142F020026AE722F011
:102B0800200267E74FF08043DA6811B142F0800293
:102B180060E722F080025DE74FF08043DA6871B128
:102B280042F04002DA604FF080439A6A02F03F02B6
:102B38003F2AFAD15A6929B142F008027FE722F008
:102B48004002EFE722F0080279E74FF08043DA68A5
:102B580011B142F010023DE722F010023AE74FF0BF
:102B68008043DA6811B142F0007233E722F0007254
:102B780030E74FF08043DA6811B142F0807229E7FC
:102B880022F0807226E74FF08043DA6811B142F4F0
:102B980000021FE722F400021CE74FF08043DA68C6
:102BA80011B142F4800215E722F4800212E74FF0D7
:102BB8008043DA6811B142F008020BE722F00802FC
:102BC80008E74FF08043DA6811B142F0040201E7E8
:102BD80022F00402FEE64FF08043DA6811B142F0B9
:102BE8000202F7E622F00202F4E64FF08043DA68C8
:102BF80011B142F00102EDE622F00102EAE64FF0DF
:102C08008043DA6811B142F00062E3E622F0006224
:102C1800E0E64FF08043DA6811B142F08062D9E60D
:102C280022F08062D6E64FF080431A6979B142F407
:102C380000721A619A6A02F03F023F2AFAD15A6971
:102C480042F010025A611A6942F0100223E722F09A
:102C580010021A619A6A02F03F023F2AFAD15A69B1
:102C680022F010025A611A6922F4007213E74FF039
:102C780080431A6979B142F480521A619A6A02F063
:102C88003F023F2AFAD15A6942F020025A611A6972
:102C980042F40062FFE622F400621A619A6A02F0C6
:102CA8003F023F2AFAD15A6922F020025A611A6972
:102CB80022F48052EFE64FF080431A6971B142F076
:102CC80008021A614FF080439A6A02F03F023F2AD5
:102CD800FAD15A6929B142F00102B0E622F008029D
:102CE800EFE722F00102AAE64FF080431A6931B1FA
:102CF80042F004021A611A6942F04002CBE622F05F
:102D080004021A611A6922F04002C4E64FF08043B7
:102D18001A6971B142F002021A614FF080439A6A4F
:102D280002F03F023F2AFAD15A6929B142F0020261
:102D380085E622F00202EFE722F002027FE64FF07A
:102D48008043DA6811B142F0805243E622F08052A3
:102D580040E64FF080431A6911B142F001029AE649
:102D680022F0010297E64FF080431A6911B142F050
:102D7800800290E622F080028DE64FF080431A69C7
:102D880011B142F4807286E622F4807283E64FF035
:102D98008043DA6809B11A431CE622F0804219E63A
:102DA8004FF08043DA6811B142F0005212E622F087
:102DB80000520FE64FF080431A6911B142F4806265
:102DC80069E622F4806266E64FF08043DA6811B162
:102DD80042F40012FEE522F40012FBE54FF08043B6
:102DE800DA6811B142F00042F4E522F00042F1E560
:102DF80010B50C4605280ED8DFE800F003151F288B
:102E0800345F374A3749936934B123F0200393611B
:102E18008B685B07FCD510BD43F0200393618B687A
:102E28005C07FCD4F7E72E4A936819B123F40043F2
:102E38009360F0E743F40043FAE7294A936811B135
:102E480023F4C043F4E743F4C043F1E7244A936909
:102E580023F0180319B143F008039361DBE743F04B
:102E68001003FAE701210E20FFF768FD1E4BD3F887
:102E78000421CCB190060BD4D3F8042142F02002EF
:102E8800C3F80421D3F8042122F08002C3F80421F6
:102E9800D3F8042142F00402C3F80421124AD2F8FC
:102EA80008319907FBD5B6E722F00402C3F80421DC
:102EB800D3F808219207FBD4ADE7094A0949936979
:102EC80034B123F0400393618B68002BFCDAA2E74E
:102ED80043F0400393618B68002BFCDB9BE700BF4A
:102EE8000080004000820040009000403F281DD82C
:102EF8002F280DD93038012383404FF0804219B96B
:102F0800D1690B43D3617047D16921EA0303F9E71B
:102F1800A0F12003DBB2022B98BF0D2001238340D0
:102F28004FF0804219B991690B43936170479169D9
:102F380021EA0303F9E708B500210320FFF7FEFCA7
:102F480001210320FFF7D2FFBDE80840002103203C
:102F5800FFF7CCBF034940F6FF52CB6A32EA0303BE
:102F6800FBD1704700E0004008B5FFF7F3FF054BC1
:102F78001A6818B142F080521A6008BD22F08052D7
:102F8800FAE700BF00E0004008B5FFF7E3FF054B94
:102F98001A6818B142F080721A6008BD22F0807277
:102FA800FAE700BF00E00040012808B50AD8FFF79B
:102FB800D1FF054B1A6801280CBF42F0007222F0BD
:102FC80000721A6008BD00BF00E00040F8B5054671
:102FD80000285ED0314B5F6BB9B25E6C5A6CB2425E
:102FE800FBD19C6C9A6CA242FBD15A6B92B2914273
:102FF800F1D10029EFD0FFF79BFCBFB207EE907A22
:10300800B8EEE77AF6EE007A002843D1DFED246ABD
:10301800C6F3021306F00F0203EB830302EB43032C
:10302800EB71C6F3C223C6F3C31203EB830302EBAF
:103038004303AB71C6F3814303EB8303C6F38336C3
:1030480006EB4306C4F3011304F00F0203EB8303FA
:1030580002EB43032B71C4F38023C4F3831203EB05
:10306800830302EB4303E7EE267AEB70C4F3C22333
:10307800AB70C4F3834303EB8303C4F38334FCEEE4
:10308800E77A04EB430404F5FA64C5ED027A6E713D
:103098002C80F8BDDFED036ABAE700BF00E000400E
:1030A8000024F4410000FA41202810B50C4611D83C
:1030B800032808D8431E012B0BD8FFF74BFF44B950
:1030C800064BD86105E0064B021FD2B2D340DB079E
:1030D800F3D410BD4028FCD1EFE700BF00E000406A
:1030E80011100010202810B5044615D803280BD855
:1030F800431E012B12D8FFF72DFF094BDB699C43B8
:103108000CBF0120002006E0021F064BD2B2D340BC
:1031180013F00100EFD110BD4028ECD00020FAE7F1
:1031280000E0004011100010202814D803280BD804
:10313800431E012B13D8012911D8094B9A6A0CBFD9
:10314800024382439A620AE0064B021FD2B2D3407E
:10315800DB07F0D470474028EDD08028EBD07047CB
:1031680000E000401110001008B518B1FFF7F2FE9A
:10317800014B986108BD00BF00E0004030B1054B2D
:10318800DA6A02601B6B4360002070474FF0FF3023
:10319800704700BF0000024083690B4214BF012042
:1031A8000020704783699B06FCD4016070478369DF
:1031B800DB06FCD40068C0B27047836B1AB923EAF7
:1031C8000103836370470B43FBE74FF4E13303606C
:1031D80060238380002383714FF44013836070471A
:1031E800036B19B143F001030363704723F0010334
:1031F800FAE7036C0B4214BF0120002070474164BA
:103208007047000038B5036B23F001030363C36AFA
:1032180023F01003C36200238363484B984204469B
:103228000D464AD1FFF76CFBC00B013802285CD869
:10323800434B53F820002B68B0EB031F4FEA0311F0
:1032480078D36BB1B0FBF1F201FB1200C000B0FB08
:10325800F3F000F0010303EB50039BB243EA02438F
:103268001A0C03F03F036262A362E36A2A7923F02F
:1032780060031343E362E36AAA7923F00803134364
:10328800E362EB7A002B3CD0E36A43F01003E3627D
:103298006B79012B39D0022B40D0002B46D0236B01
:1032A800AA7A23F0300313432363236B2A8923F478
:1032B800404313432363002038BDB0F1402F04D1AD
:1032C800FFF724FBC0F34F30AFE71E4B984204D101
:1032D800FFF722FBC0F3CF20A7E71B4B98420ED184
:1032E800FFF720FBC0F34F209FE7144B9C4202D00E
:1032F800B4F1402F03D10220FFF7B4FA9BE7032073
:10330800FAE7E36A23F01003C1E7E36A43F0020334
:10331800E362E36A23F00403E362C0E7E36A43F08D
:103328000203E362E36A43F00403F5E7E36A23F088
:103338000203F1E74FF0FF30BEE700BF0030004066
:10334800884E00080000014000100140FFF7C6B990
:1033580010B501F0C5FA044601F054FB064B1B6892
:10336800011B241A03B910BD1A688A428CBF1219AE
:1033780000221A601B69F5E798000020054A1368C7
:103388000BB10021197203610123106003720068F8
:1033980001F056BA980000200023C0E90033C0E9C4
:1033A800031303727047000070B5044601F05BFB1D
:1033B80064B11A4E3268134663B96168216023729A
:1033C80062B901F01FFB2046FFF7D8FFBDE8704047
:1033D80001F04BBB9C42F9D01B69EDE701F01EFBE5
:1033E800226833680244226019688A42054605D279
:1033F800FFF7AEFF23685B1B2360E4E719691869D0
:1034080010B91C612061E1E70868824202D90B46C5
:103418000969F4E71C612161D8E700BF9800002022
:1034280070B5184CFFF794FF23682BB11A69DB6855
:10343800226003B9FEE798470025236833B9FFF7F0
:1034480087FF2368A3B970BD9847F6E71E6801F0A7
:10345800E5FA864275EB010103D323681B68002B4C
:10346800EDD123681A69DB682260002BECD1FEE7F6
:103478001A7A002AE7D10122BDE8704018681A724A
:1034880001F0DEB99800002070B5164D044601F031
:10349800EAFA2B6803B11CB9BDE8704001F0E5BA3F
:1034A800A34215D1237A266983B16EB10023237212
:1034B8002E60FFF74DFF2B68012218681A7201F081
:1034C800BFF900232372E7E701F000FA2E60F8E75E
:1034D8001A461B69002BF4D09C42F9D12369136169
:1034E800EFE700BF9800002038B504460D46FFF707
:1034F800CBFFC4E9005538BD08B501F0F7F9034A18
:10350800D2E90232C01842EB010108BD9800002040
:1035180038B504460D46FFF7EFFF001B61EB0501C8
:1035280038BD012070470000034B1B6813B15B686E
:1035380003B11847704700BFAC000020034B1B685D
:1035480013B1DB6803B11847704700BFAC00002017
:10355800002000F017BE000038B5164C254645F887
:10356800040B00F03BFF002000F00CFE012000F0EF
:10357800B6FE0021084601F0ABF80421002000F057
:103588007FFF0023194618461A4600F0F9FE284620
:103598000949FFF701FF04F118000849FFF7FCFE8D
:1035A80004F12C000649FFF7F7FE002084F84000DC
:1035B80038BD00BFAC000020313500084535000893
:1035C8003537000808B500F055FDC31EDBB2022BE5
:1035D8009ABFC0F10600C0B2002008BD00F014BFB9
:1035E80008B501F082F808BD01F068BB01F032BBF4
:1035F80070B500230C4640F201211A4606460846DB
:1036080000F0BEFE00F036FF0C4D01280C480CBF40
:1036180085F8534085F84C4000F0EAFF21463046D3
:10362800002200F0DBFDD5F880100648FFF75CFFAC
:10363800BDE870400348FFF7B7BE00BFAC000020EC
:10364800F0000020B000002008B54FF0040000F0A2
:1036580087FDBDE808400220FFF778BE00F0FABDFC
:1036680037B5184B93F87C500F2805F10D05EDB2CE
:1036780022D8072822D8032822D8012894BF00245A
:10368800012400234FF4C0711A46084600F078FE62
:10369800002300930A222946204600F0FBFF00F091
:1036A800F5FD09484FF4FA61FFF71EFF064803B01D
:1036B800BDE83040FFF778BE0424E2E70324E0E7E2
:1036C8000224DEE7AC000020D800002010B50C462C
:1036D8002DED028B08EE102A00F096FE204601F030
:1036E80041FB00F0DFFDDFED0A7A0A4CB8EEC88A2C
:1036F800204628EE278AFCEEC87A17EE901AFFF7C4
:10370800F3FEBDEC028B2046BDE81040FFF74CBE2F
:1037180000007A44C400002001F078BA01F0A6BA8B
:1037280008B501F0DFF9033008BD000010B500202E
:1037380000F0A6FC044B1B682BB19B691BB1BDE8CC
:1037480010400020184710BDAC00002010B590B103
:103758000A4B012219461C68A04206D39C68A04265
:1037680003D201EBC201087910BD0132162A03F118
:103778000803F0D1FEE71F20F6E700BF984E0008C7
:103788000128094806D1094B80F8531019704430B4
:1037980000F02EBF90F84B30012B04D1034B80F87A
:1037A8004C101970F3E77047AC00002007000020A8
:1037B800002340F2422110B51A460446084600F09C
:1037C800DFFD34B10A482146FFF78EFE0848FFF7AF
:1037D800EBFD084B93F884202AB16FF07F40BDE8D9
:1037E800104000F005BDD3F888008001F7E700BF5E
:1037F800C4000020AC0000200023022110B51A46A6
:103808000446084600F0BCFD34B10A482146FFF7DB
:103818006BFE0848FFF7C8FD074B93F884202AB1D0
:103828006FF07F40BDE8104000F0F8BCD3F8880086
:103838008001F7E7C4000020AC00002037B5574CE2
:1038480094F84030002B00F0A68001F00CF900231A
:1038580084F8403001F009F9B4F88C30D9070AD55A
:10386800201DFFF711FE012000F00AFC236813B1A8
:103878001B6803B19847B4F88C309A0732D548488A
:10388800FFF702FE94F8845095B9012000F0F8FB88
:10389800294640F6021001F0DDF940F6441001F027
:1038A8000DFA40F00201C9B240F6441001F0D2F915
:1038B800FF220DF107013B4800F048FF3A4800F0AD
:1038C8005BFF236873B19D6865B1B4F88C305B0603
:1038D80008D494F99D3194F99C219DF8071031483A
:1038E8001A44A847B4F88C3058060AD594F884309E
:1038F80013B9012000F0C4FB236813B11B6903B19D
:103908009847B4F88C3019060ED52848FFF7BCFD47
:10391800012000F0B5FB236833B19B69B4F88C0033
:1039280013B1C0F300209847B4F88C309A050ED52F
:1039380000F0A0FB04281FD11D48FFF7A5FD0120BA
:1039480000F09EFB236813B15B6803B19847B4F895
:103958008C309B061FD51248FFF796FD94F88430EB
:1039680013B9012000F08CFB2368A3B1DB6893B185
:1039780003B0BDE83040184700F07CFB0528E6D1CD
:103988000748FFF781FD012000F07AFB2368002B30
:10399800DDD0DB68D9E703B030BD00BFAC00002044
:1039A800C40000203A0100203C020020D80000207A
:1039B800B00000200E4B10B5044683F8A40183F82C
:1039C800A50100F017F85CB134214FF4E86001F06C
:1039D80041F94421BDE8104040F2417001F03AB984
:1039E80014214FF4E86001F035F92421F2E700BF13
:1039F800AC00002008B5012000F02CFD064B93F820
:103A0800A40193F8A521824205D083F8A501BDE859
:103A18000840FFF7CFBF08BDAC000020012808B55B
:103A280007D0002000F016FD044B002283F8A521E2
:103A380008BDBDE80840FFF7DDBF00BFAC000020AF
:103A480070B50D4616461C46FFF7E8FF284600F0FD
:103A5800DBFC0020FFF7ACFE0120FFF777FCFFF747
:103A68004BFD054628460021FFF752FDA04271F1A3
:103A7800000104D30124FFF7E7FD204670BD00F0E4
:103A880034FE8642EEDA0024F5E738B5FFF7B2FFD8
:103A9800002000F0ADFB002425460120FFF756FC6E
:103AA80000F023FE00F00103A3400134202C45EA76
:103AB8000305F2D101F06CF90544FFF7C5FD28466E
:103AC80038BD00000A2838B50DD8084B03EBC003F1
:103AD800D3E92C4501208840FCF790FC22462B4670
:103AE800FCF720FE38BD00240025F3E7984E0008B7
:103AF8002DE9F04F87B015469DF8542002929DF8A5
:103B080064209DF84C70BDF848807B4CDFF8049227
:103B18000393002A18BF4FF00008002F9DF850307B
:103B2800BDF8446084F8842008BFFF238A4689F8DA
:103B38000030834620B101286CD007B0BDE8F08F73
:103B480000F0B5FB0B22504684F8782084F86CB05E
:103B58002567FFF7FBFD99F8003084F84C30029B8D
:103B680084F87900002B0CBF0123F22341F60402EC
:103B7800F60087F0010784F84D300123A4F84820A7
:103B880084F84E30A4F8466084F84B7084F844B04A
:103B980084F84AB0FFF7DCFC94F86C00003818BFD2
:103BA8000120FFF73BFF04F16C0000F0C9FC04F1B1
:103BB800440000F01DFD514AD2F80801D2F80C115A
:103BC80004AB03C304A800F082FA40F2FF1000F02F
:103BD800ABFA2846FCF702FC02460B46002048498F
:103BE800FCF7A0FD474B0022FCF772FC0646404656
:103BF8000F46FCF703FC02460B4630463946FCF7F5
:103C080067FC414B0022FCF763FCFCF723FFC4F878
:103C1800880092E7002000F04AFB5FFA88F000F085
:103C280052FB364A84F86CB052445FFA85F892F831
:103C3800103184F87C800193BAF1000F3DD10B3D1F
:103C4800012D3FD8A8F10508B8F1010F02D80C2EB4
:103C580038BF0C26019B84F87D30039B84F87E30A6
:103C6800012384F8443099F8003084F85330029BDB
:103C780084F854309DF8603084F8553084F87FB06B
:103C8800A4F8506084F85270FFF7B4FE1F4800F0A3
:103C980057FC1F4800F0ACFC94F85530012B40F25B
:103CA80036701ED101F00AF800F0FB0140F23670C0
:103CB80000F0D0FF4FF6FF70A9E7BAF1010F01D16C
:103CC8000C2DBFD001984146FFF7FCFE08A3D3E9AD
:103CD8000023FCF783FEB0F1000B18BF4FF0010B77
:103CE800B0E700F0EBFF40F00401C9B2DEE700BF27
:103CF800000000A047613040AC000020984E00084A
:103D08000000F03F0000204000408F4018010020D4
:103D1800F0000020070000202DE9F74F8946BDF884
:103D280038600C999DF83C809DF840A05E4C174681
:103D3800054648B101284CD040F6890000F0BEFF86
:103D480040F00401C9B28BE00B2284F86C001846DD
:103D5800216784F87820FFF7F9FC41F60403BAF1EB
:103D6800000FA4F848300CBF0123F22384F84D302B
:103D7800F600012388F0010884F84E3084F87900B1
:103D8800676784F84450A4F8466084F84A5084F879
:103D98004B80FFF7DDFB94F86C00003818BF01205A
:103DA800FFF73CFE04F16C0000F0CAFB04F144008C
:103DB80000F01EFC3D4AD2F80801D2F80C116B46FF
:103DC80003C3684600F083F940F2FF1000F0ACF935
:103DD800B2E7364A84F86C001A44CFB292F810B1B0
:103DE80084F87C70002B48D10B39012949D8053F4C
:103DF800012F02D80C2E38BF0C269DF8343084F8D9
:103E08007E30012384F84430294B84F87DB01B7838
:103E180084F853309DF84C3084F8553084F87F503E
:103E2800A4F8506084F8528084F854A0FFF790FBFF
:103E380094F86C00003818BF0120FFF7EFFD1D480B
:103E480000F07EFB1C4800F0D3FB94F87D30062B75
:103E58007FF472AF40F6890000F030FF00F0FB01FC
:103E680040F6890000F0F6FE484600F07BFF149B00
:103E7800C4F8803003B0BDE8F08F012B01D10C29C4
:103E8800B5D039465846FFF71DFE05A3D3E90023F0
:103E9800FCF7A4FD051E18BF0125A8E7AFF30080B5
:103EA800000000A047613040AC000020984E000898
:103EB8000700002018010020F0000020000000008A
:103EC8002DE9F84F884620B1012840D00020BDE8F0
:103ED800F88F5B4ADFED5B6A92F84910B2F846301A
:103EE80003EBD10307EE903A92F84B30F8EEE77AFD
:103EF800002BB7EE007A08BFB0EE667A77EE877AC5
:103F080007EE108A92F84D30B8EEC77A022B77EE9A
:103F1800877AB0EE007A08BFF0EE476A77EEA67AA5
:103F2800B2EE007A67EE877A92ED1C7AB8EE477A9D
:103F3800C7EE876ADFED447A66EEA77A17EE900A35
:103F4800FCF76EFAFDF7ECF9FCF784FDBFE7DFF844
:103F5800F0A09AF87CB09AF87D005946FFF7B2FDB8
:103F6800BAF8503007EE903AF8EEE77AB1EE017AF7
:103F780077EE877A04460D4617EE900AFCF750FA5A
:103F880022462B46FCF7A4FACBEB48089AF85430A3
:103F980008F1070808EB83089AF85230012B064607
:103FA80014BF00201420C0EB88000F46FCF726FA47
:103FB8009AF87F30003B18BF01238046ABEB4300E3
:103FC80080008946FCF71AFA02460B4640464946E5
:103FD800FCF7A8FBFDF754F880469AF87E0000F03D
:103FE800030089460430FCF709FA42464B46FCF7C1
:103FF8006FFA0022002380468946FCF7F9FC18B9BD
:104008004FF000084FF00009104B00224046494687
:10401800FCF7A8F822462B46FCF75AFA32463B46EC
:10402800FCF7A0F804A3D3E90023FCF79BF8FDF7FD
:10403800F3F889E7AFF30080000000E0CEF7EF3F28
:10404800AC0000200000000000007A44000020407E
:1040580010B5074C012384F8403000F0A6F9A4F805
:104068008C00BDE810404FF6FF7000F0C5BB00BFE4
:10407800AC000020014B1878704700BF54020020A4
:10408800014B1870704700BF5402002010B50C4C4B
:10409800237813B12378062B03D100F05BFD00F0E1
:1040A80067FE2378052B05D100F062FEBDE81040BD
:1040B80000F044BD2378042BF8D100F061FEF5E749
:1040C800540200200A460146002000F003BE08B54D
:1040D800014608224FF4D86000F098FD002008BD82
:1040E80007B5074B5B7840BAADF804002BB902223C
:1040F80001A940F2BC6000F089FD03B05DF804FB43
:104108005402002007B5074B5B7840BAADF80400AD
:104118002BB9022201A940F2BE6000F077FD03B07E
:104128005DF804FB5402002010B50C4B5B78044684
:104138009BB94FF4D76000F0C1FDC4F3002100F033
:10414800FE0001434FF4D76000F084FDE1B240F275
:10415800B960BDE8104000F07DBD10BD54020020DC
:1041680007B58DF8040000F00BFE012201A9842098
:1041780000F008FD024B00221A7003B05DF804FB42
:104188005402002007B501228DF807000DF1070140
:10419800802000F0F7FC9DF80720044B22B901228B
:1041A8001A7003B05DF804FB0222F9E754020020FC
:1041B80007B5094B8DF8060004221A70030C8DF818
:1041C80004300322030A01A983208DF8053000F08A
:1041D800D9FC03B05DF804FB5402002010B5144666
:1041E800FFF770FF2046BDE81040FFF7E1BF000071
:1041F80007B5094B8DF8060005221A70030C8DF8D7
:1042080004300322030A01A982208DF8053000F04A
:10421800B9FC03B05DF804FB5402002013B50C4B45
:1042280004460522962140F6AC001A7000F012FDF3
:10423800230C8DF804300322230A01A982208DF86B
:1042480005308DF8064000F09DFC02B010BD00BF9F
:104258005402002007B5030C8DF80030030A8DF8CE
:1042680001300B0C49BA8DF80200ADF80410062293
:10427800694694208DF8033000F084FC024B062236
:104288001A7003B05DF804FB54020020002208B540
:104298001146C52000F076FC014B07221A7008BDB4
:1042A8005402002000221146D12000F06BBC07B553
:1042B80001228DF807000DF107019F2000F062FC34
:1042C80003B05DF804FB07B501228DF807000DF176
:1042D8000701A02000F056FC03B05DF804FB07B509
:1042E80001228DF807000DF10701962000F04AFC25
:1042F80003B05DF804FB0000134B984207B50BD9D7
:104308004EF6E113ADF80430022201A9982000F01E
:1043180039FC03B05DF804FB0C4B984202D94DF60A
:10432800D703EFE70A4B984202D94CF2C153E9E7A9
:10433800084B984202D948F27513E3E7064B9842B6
:10434800E2D946F66B73DDE700E9A43580F8A932B7
:104358008044E52D000B6B1B40FC541907B58DF804
:10436800062004228DF804008DF8051095200DEB29
:1043780002018DF8073000F005FC03B05DF804FB7E
:1043880007B552BAADF8042040BA082249BAADF8C8
:104398000000ADF802105BBA69461046ADF8063069
:1043A80000F0F0FB03B05DF804FB07B5022201A999
:1043B800122000F009FCBDF8040040BA80B203B036
:1043C8005DF804FB07B501228DF807000DF1070120
:1043D8009D2000F0D7FB03B05DF804FB08B500F0A2
:1043E80053FB00F081FB00F0B5FB0020FFF7CAFE8D
:1043F8000120FFF7E7FF024B01221A7008BD00BF3A
:10440800540200200000000037B5114DAB78044677
:104418001BB9FFF771FF0123AB702046FBF7DEFFE6
:1044280009A3D3E90023FCF77DF9FCF713FB042269
:1044380000BA01900DEB0201862000F0A3FB03B047
:1044480030BD00BFAFF30080000000008084EE3F65
:104458005402002007B5064B8DF80700587001225A
:104468000DF107018A2000F08DFB03B05DF804FB15
:1044780054020020014B5878704700BF54020020B6
:1044880037B5044600200D4600F06FFC01280346AE
:1044980021D10F2C02464FF000010CBF062004204A
:1044A800FFF75CFF6FF00203A342B8BF23460E2B51
:1044B800A8BF0E231C46182140F6E70000F0CAFBEF
:1044C800022201A98E208DF804408DF8055000F0D5
:1044D80059FB03B030BD40F6D80000F0EFFB40F0C8
:1044E8001E01C9B240F6D80000F0B4FB124B187890
:1044F800022818D0032806D0012818D0012300224A
:104508000721042003E00221012300220846FFF7C7
:1045180025FF6FF002039C42B8BF1C46162CA8BFAB
:1045280016243821C8E7012300220321EFE70346B8
:10453800002205210320EAE77D0200200000000098
:1045480013B50023CDE90033274B04465B78007888
:10455800834201D0FFF77EFF23781BB1012B35D0B2
:1045680002B010BD6068FBF739FF02460B461AA17E
:10457800D1E90001FCF7D6F800221C4BFBF7A8FF95
:10458800FCF768FA030C8DF80030030A8DF8013047
:10459800237B8DF802008DF80330A068637B8DF8CB
:1045A8000430FBF71BFF0EA3D3E90023FCF7BAF88E
:1045B800FCF750FA030C40BA8DF80530ADF8060048
:1045C800082269468B2000F0DDFAC9E723690093C9
:1045D8000422F6E7AFF300800000000080847E41EB
:1045E800000000008084EE3F54020020000040409C
:1045F8001FB50023CDE901338DF80C30244B044658
:104608005B780078834201D0FFF724FF23781BB141
:10461800012B31D004B010BD637AF12B20D14FF6B5
:10462800FF70FFF75DFD48F20500FFF76BFD022301
:104638006288A188ADF8061052BAE188ADF8042066
:104648008DF80B30227AA37A8DF80A20ADF808107D
:104658008DF80C30092201A98C2000F093FAD9E7D3
:10466800F22BE5D141F60F50FFF73AFD41F2210058
:10467800FFF748FD0623DBE7A3895BBAADF80430F2
:10468800E389ADF80630238AADF808300622E2E760
:104698005402002013B5049C8DF80330230C8DF8C8
:1046A80000008DF801108DF802208DF804300522E5
:1046B800230A694688208DF805308DF8064000F0F9
:1046C80061FA024B07221A7002B010BD5402002092
:1046D80007B502228DF804008DF805108F2001A976
:1046E80000F050FA03B05DF804FB07B5012201A9F8
:1046F800152000F069FA9DF804004042401003B00C
:104708005DF804FB37B505460C46022201A91320C3
:1047180000F05AFA0C4B5B78012B11D140F204706F
:1047280000F0CCFAC0F3C710012809D140F202709A
:1047380000F0C4FA9DF805302870237003B030BD2E
:104748009DF80400F6E700BF5402002073B50C463C
:1047580005460DF1070120461646FFF7D3FF2278DC
:10476800B24207D89DF80700294600F0D5FA002084
:1047780002B070BD0120FBE713B50322044601A96E
:10478800142000F021FA1B494A7822704AB1012A04
:1047980017D013220021601CFCF712FB0F23237093
:1047A8000DE09DF8043023719DF80530A2605B424E
:1047B8005B10A3719DF806305B425B10637102B019
:1047C80010BD9DF804309DF905205B425B102373F2
:1047D8009DF80530002AB6BFA3F580739B089B108F
:1047E80063739DF806305B425B10A3734B682361CB
:1047F800E5E700BF5402002007B5022240BAADF831
:10480800040001A9104600F0BDF903B05DF804FBEF
:1048180010B5094C23786BB9FEF78DFB01210320F5
:10482800FEF78CF80120FEF79FFB044B02221A606A
:104838000123237010BD00BF6002002000E100E0EA
:1048480070B5052886B038BF052003AC054620465C
:10485800FEF7BCFB94E807001A4C6B4683E8070098
:1048680084E807000020FEF78FFBFEF761F80228B6
:1048780028460CBF4FF4FA464FF40046FBF7AEFD4E
:10488800044630460D46FBF7A9FD02460B46204676
:104898002946FBF71DFE0C4B0022FBF743FFFCF7F4
:1048A8006BFCFCF70FF9FEF75FFC0120FEF77CFBC1
:1048B8000120FEF769FB0121102006B0BDE8704019
:1048C800FEF732BC6402002000408F4008B500208B
:1048D800FEF75AFBBDE8084000211020FEF724BC73
:1048E800014BD3E904017047600200202DE9F04F25
:1048F80085B001A8FEF76AFBBDF804109DF807E033
:104908009DF808509DF809009DF80A709DF80B6005
:10491800039CDFF8E090DFF8E0A04FF0000C63465E
:104928006246A1F5FA6B0FFA8CF8D84517DB11F03F
:1049380003010EF1FF3E22D0DFF8C080DFF8B0900F
:104948004FF0000CF44520DA18F8011B09FB01F1BF
:10495800C9180B4642F100020CF1010CF2E7B8F15C
:10496800000F02D018F0030F06D113EB090342F130
:1049780000020CF1010CD6E713EB0A03F7E7DFF8A6
:104988008080DFF86C90714526DB4FF461614FF051
:104998003C0CA7FB0C7CA0FB0101C01941EB0C01EE
:1049A8008019134E05F1FF3506FB05F541F10001AD
:1049B800401941F10001C0184FF47A7342EB01022B
:1049C800A0FB030103FB0211B4FBF3F4001941F14E
:1049D800000105B0BDE8F08F18F801CB09FB0CFC0D
:1049E8001CEB030C634642F100020131CBE700BF28
:1049F800805101000085E2018033E1012050000868
:104A08002C50000838B5FFF771FF034B04460D46DC
:104A1800C3E9044538BD00BF6002002008B5FFF7B0
:104A280065FF034AD2E90432C01A61EB020108BDEE
:104A38006002002008B51020FEF754FB90B100205A
:104A4800FEF7A2FA00211020FEF76EFB00211020CD
:104A5800FEF72AFBFEF7E4FCBDE808400121102020
:104A6800FEF762BB08BD72B6704762B670470000B9
:104A7800044B9860DA6802F01102012AFAD19868AA
:104A8800C0B270470090004010B5134C4FF400734B
:104A9800C4F800310723236002232361D4F80431CA
:104AA800802B0BD01420FDF7FDFD0023C4F80C313A
:104AB8001420FDF7F7FD0123C4F80C31064B074815
:104AC80002225A60064B4FF400121A60BDE81040EB
:104AD80003220B21FDF798BE0090004000FC014026
:104AE80000E100E00520704710B5134CD4F80431FC
:104AF80023F02003C4F804316420FDF7D3FDD4F873
:104B0800043143F02003C4F80431D4F8043123F00D
:104B18008003C4F80431D4F8003143F02003C4F80A
:104B28000031D4F8043143F00103C4F80431D4F857
:104B38000831DB05FBD410BD0090004008B50A2001
:104B4800FDF7B0FD024AD2F80831DB05FBD408BDF9
:104B58000090004038B572B6094C0025C4F80C51D5
:104B68001420FDF79FFDC020FFF782FF2846FFF7BE
:104B78007FFF0123C4F80C31FFF7E0FF62B638BDB0
:104B880000900040F8B50F4F154606460C46FFF753
:104B98007DFA0023C7F80C313046FFF769FF25443A
:104BA800AC4208D10123842EC7F80C3108D0BDE8E7
:104BB800F840FFF7C3BF14F8010BFFF759FFEFE701
:104BC800F8BD00BF00900040F8B50F4F15460C46E1
:104BD8000646FFF75BFA0021C7F80C113046FFF7CD
:104BE80047FF0846FFF744FF2544AC4206D101239E
:104BF800C7F80C31BDE8F840FFF7A0BF0020FFF769
:104C080037FF04F8010BF0E700900040F8B5104FAB
:104C1800154606460C46FFF739FA0023C7F80C314B
:104C28000D20FFF725FF300AFFF722FFF0B2FFF74C
:104C38001FFF2544AC4206D10123C7F80C31BDE85B
:104C4800F840FFF77BBF14F8010BFFF711FFF1E7FE
:104C58000090004007B501228DF807100DF10701FB
:104C6800FFF7D4FF03B05DF804FB0000F8B5124F5E
:104C7800154606460C46FFF709FA0021C7F80C113D
:104C88001D20FFF7F5FE300AFFF7F2FEF0B2FFF73E
:104C9800EFFE0846FFF7ECFE2544AC4206D101239F
:104CA800C7F80C31BDE8F840FFF748BF0020FFF710
:104CB800DFFE04F8010BF0E70090004007B5012281
:104CC8000DF10701FFF7D2FF9DF8070003B05DF86B
:104CD80004FB0000F8B50F4F154606460C46FFF7D3
:104CE800D5F90023C7F80C310E20FFF7C1FE304676
:104CF800FFF7BEFE2544AC4206D10123C7F80C31AC
:104D0800BDE8F840FFF71ABF14F8010BFFF7B0FE33
:104D1800F1E700BF00900040F8B5114F1546064670
:104D28000C46FFF7B3F90021C7F80C111E20FFF756
:104D38009FFE3046FFF79CFE0846FFF799FE254484
:104D4800AC4206D10123C7F80C31BDE8F840FFF7A3
:104D5800F5BE0020FFF78CFE04F8010BF0E700BF5A
:104D6800009000400221FFF78BBB02207047000033
:104D7800024803220A21FDF7B7BC00BF00F001403A
:104D8800024804220A21FDF7AFBC00BF00F0014031
:104D9800074B08491A6843F2390001FB0200186002
:104DA8006FF00043B0FBF3F3C3EBC373C01A704753
:104DB800080000206D4EC641002103E00B4B5B58F4
:104DC800435004310A480B4B42189A42F6D30A4A18
:104DD80002E0002342F8043B084B9A42F9D3FDF75E
:104DE8001BFCFCF7D9F8FCF762FBFEE7E85000086B
:104DF800000000200C0000201000002014040020F7
:104E0800FEE70000024B13B10248FCF7EDB870470B
:104E180000000000FD0F0008F8B500BFF8BC08BC92
:104E28009E467047F8B500BFF8BC08BC9E46704760
:104E3800000000000000F03F0000000000002440D7
:104E480000000000000059400000000000408F40B2
:104E5800000000000088C34000000000006AF8401D
:104E68000000000080842E4100000000D012634141
:104E78000000000084D797410000000065CDCD41B7
:104E880080EE36000080000000366E010000000051
:104E9800C01200001F000000A81600001700000044
:104EA800841C00000F000000E42500001E00000024
:104EB800B42D000016000000083900000E000000A4
:104EC8002C4C00001D000000685B0000150000006D
:104ED800747200000D000000589800001C000000CB
:104EE80034B7000014000000E8E400000C000000E3
:104EF800783101001B000000686E010013000000FB
:104F080034CA01000B000000286202001A000000E9
:104F180040DB0200120000003C9303000A0000007E
:104F2800C0C204001900000060B3050011000000B1
:104F3800382007000900000020A107000000000039
:104F4800000000A0703D1F40000000608F422F400D
:104F58000000000000403F400000000000404F40BB
:104F68000000000000405F400000000000406F406B
:104F78000000000000407F4000000000000000002A
:104F8800000000400AD72440000000E07AD43440F2
:104F980000000080C2D54440C194C1000000000058
:104FA800040506030A02090108000000613500082B
:104FB800CD350008253A0008E5350008493A0008CB
:104FC800933A0008F93A0008213D00082B350008FB
:104FD800C93E0008F935000851360008593500085F
:104FE800B937000869360008D5360008E9350008E1
:104FF800F5350008F1350008213700082537000885
:1050080089370008BD3900082937000845380008E5
:1050180001380008653600081F1C1F1E1F1E1F1FB1
:105028001E1F1E1F1F1D1F1E1F1E1F1F1E1F1E1F90
:10503800000000000000304300000000000030C302
:105048004F6E527854696D656F75740D0A0050691A
:105058006E67506F6E672074657374205374617245
:1050680074210D0A0020696E74657272757074205F
:10507800646F65732068617070656E73200A004EF6
:105088006577205541525420646174612028256455
:10509800206279746573293A2025730D0A00256307
:1050A800000D0020656E64206F66206C696E6500D7
:1050B800666E692B00666E69006E616E00666E69C9
:0C50C8002D00286E756C6C2900000000A3
:0850D40034BAFF7F0100000067
:0850DC000D4E0008410100081F
:0450E40019010008A6
:0C50E800050048554E4700FF0100000085
:0400000508004DC1E1
:00000001FF
